{
  "_format": "hh-sol-artifact-1",
  "contractName": "Hoge2",
  "sourceName": "contracts/Hoge2.sol",
  "abi": [
    {
      "inputs": [],
      "stateMutability": "nonpayable",
      "type": "constructor"
    },
    {
      "anonymous": false,
      "inputs": [
        {
          "indexed": true,
          "internalType": "address",
          "name": "owner",
          "type": "address"
        },
        {
          "indexed": true,
          "internalType": "address",
          "name": "spender",
          "type": "address"
        },
        {
          "indexed": false,
          "internalType": "uint256",
          "name": "value",
          "type": "uint256"
        }
      ],
      "name": "Approval",
      "type": "event"
    },
    {
      "anonymous": false,
      "inputs": [
        {
          "indexed": true,
          "internalType": "address",
          "name": "previousOwner",
          "type": "address"
        },
        {
          "indexed": true,
          "internalType": "address",
          "name": "newOwner",
          "type": "address"
        }
      ],
      "name": "OwnershipTransferred",
      "type": "event"
    },
    {
      "anonymous": false,
      "inputs": [
        {
          "indexed": true,
          "internalType": "address",
          "name": "from",
          "type": "address"
        },
        {
          "indexed": true,
          "internalType": "address",
          "name": "to",
          "type": "address"
        },
        {
          "indexed": false,
          "internalType": "uint256",
          "name": "value",
          "type": "uint256"
        }
      ],
      "name": "Transfer",
      "type": "event"
    },
    {
      "inputs": [
        {
          "internalType": "address",
          "name": "owner",
          "type": "address"
        },
        {
          "internalType": "address",
          "name": "spender",
          "type": "address"
        }
      ],
      "name": "allowance",
      "outputs": [
        {
          "internalType": "uint256",
          "name": "",
          "type": "uint256"
        }
      ],
      "stateMutability": "view",
      "type": "function"
    },
    {
      "inputs": [
        {
          "internalType": "address",
          "name": "spender",
          "type": "address"
        },
        {
          "internalType": "uint256",
          "name": "amount",
          "type": "uint256"
        }
      ],
      "name": "approve",
      "outputs": [
        {
          "internalType": "bool",
          "name": "",
          "type": "bool"
        }
      ],
      "stateMutability": "nonpayable",
      "type": "function"
    },
    {
      "inputs": [
        {
          "internalType": "address",
          "name": "account",
          "type": "address"
        }
      ],
      "name": "balanceOf",
      "outputs": [
        {
          "internalType": "uint256",
          "name": "",
          "type": "uint256"
        }
      ],
      "stateMutability": "view",
      "type": "function"
    },
    {
      "inputs": [],
      "name": "decimals",
      "outputs": [
        {
          "internalType": "uint8",
          "name": "",
          "type": "uint8"
        }
      ],
      "stateMutability": "view",
      "type": "function"
    },
    {
      "inputs": [
        {
          "internalType": "address",
          "name": "spender",
          "type": "address"
        },
        {
          "internalType": "uint256",
          "name": "subtractedValue",
          "type": "uint256"
        }
      ],
      "name": "decreaseAllowance",
      "outputs": [
        {
          "internalType": "bool",
          "name": "",
          "type": "bool"
        }
      ],
      "stateMutability": "nonpayable",
      "type": "function"
    },
    {
      "inputs": [
        {
          "internalType": "address",
          "name": "account",
          "type": "address"
        }
      ],
      "name": "excludeAccount",
      "outputs": [],
      "stateMutability": "nonpayable",
      "type": "function"
    },
    {
      "inputs": [
        {
          "internalType": "address",
          "name": "account",
          "type": "address"
        }
      ],
      "name": "includeAccount",
      "outputs": [],
      "stateMutability": "nonpayable",
      "type": "function"
    },
    {
      "inputs": [
        {
          "internalType": "address",
          "name": "spender",
          "type": "address"
        },
        {
          "internalType": "uint256",
          "name": "addedValue",
          "type": "uint256"
        }
      ],
      "name": "increaseAllowance",
      "outputs": [
        {
          "internalType": "bool",
          "name": "",
          "type": "bool"
        }
      ],
      "stateMutability": "nonpayable",
      "type": "function"
    },
    {
      "inputs": [
        {
          "internalType": "address",
          "name": "account",
          "type": "address"
        }
      ],
      "name": "isExcluded",
      "outputs": [
        {
          "internalType": "bool",
          "name": "",
          "type": "bool"
        }
      ],
      "stateMutability": "view",
      "type": "function"
    },
    {
      "inputs": [],
      "name": "name",
      "outputs": [
        {
          "internalType": "string",
          "name": "",
          "type": "string"
        }
      ],
      "stateMutability": "view",
      "type": "function"
    },
    {
      "inputs": [],
      "name": "owner",
      "outputs": [
        {
          "internalType": "address",
          "name": "",
          "type": "address"
        }
      ],
      "stateMutability": "view",
      "type": "function"
    },
    {
      "inputs": [
        {
          "internalType": "uint256",
          "name": "tAmount",
          "type": "uint256"
        }
      ],
      "name": "reflect",
      "outputs": [],
      "stateMutability": "nonpayable",
      "type": "function"
    },
    {
      "inputs": [
        {
          "internalType": "uint256",
          "name": "tAmount",
          "type": "uint256"
        },
        {
          "internalType": "bool",
          "name": "deductTransferFee",
          "type": "bool"
        }
      ],
      "name": "reflectionFromToken",
      "outputs": [
        {
          "internalType": "uint256",
          "name": "",
          "type": "uint256"
        }
      ],
      "stateMutability": "view",
      "type": "function"
    },
    {
      "inputs": [],
      "name": "renounceOwnership",
      "outputs": [],
      "stateMutability": "nonpayable",
      "type": "function"
    },
    {
      "inputs": [],
      "name": "symbol",
      "outputs": [
        {
          "internalType": "string",
          "name": "",
          "type": "string"
        }
      ],
      "stateMutability": "view",
      "type": "function"
    },
    {
      "inputs": [
        {
          "internalType": "uint256",
          "name": "rAmount",
          "type": "uint256"
        }
      ],
      "name": "tokenFromReflection",
      "outputs": [
        {
          "internalType": "uint256",
          "name": "",
          "type": "uint256"
        }
      ],
      "stateMutability": "view",
      "type": "function"
    },
    {
      "inputs": [],
      "name": "totalFees",
      "outputs": [
        {
          "internalType": "uint256",
          "name": "",
          "type": "uint256"
        }
      ],
      "stateMutability": "view",
      "type": "function"
    },
    {
      "inputs": [],
      "name": "totalSupply",
      "outputs": [
        {
          "internalType": "uint256",
          "name": "",
          "type": "uint256"
        }
      ],
      "stateMutability": "view",
      "type": "function"
    },
    {
      "inputs": [
        {
          "internalType": "address",
          "name": "recipient",
          "type": "address"
        },
        {
          "internalType": "uint256",
          "name": "amount",
          "type": "uint256"
        }
      ],
      "name": "transfer",
      "outputs": [
        {
          "internalType": "bool",
          "name": "",
          "type": "bool"
        }
      ],
      "stateMutability": "nonpayable",
      "type": "function"
    },
    {
      "inputs": [
        {
          "internalType": "address",
          "name": "sender",
          "type": "address"
        },
        {
          "internalType": "address",
          "name": "recipient",
          "type": "address"
        },
        {
          "internalType": "uint256",
          "name": "amount",
          "type": "uint256"
        }
      ],
      "name": "transferFrom",
      "outputs": [
        {
          "internalType": "bool",
          "name": "",
          "type": "bool"
        }
      ],
      "stateMutability": "nonpayable",
      "type": "function"
    },
    {
      "inputs": [
        {
          "internalType": "address",
          "name": "newOwner",
          "type": "address"
        }
      ],
      "name": "transferOwnership",
      "outputs": [],
      "stateMutability": "nonpayable",
      "type": "function"
    }
  ],
  "bytecode": "0x608060405273fad45e47083e4607302aa43c65fb3106f1cd7607600560006101000a81548173ffffffffffffffffffffffffffffffffffffffff021916908373ffffffffffffffffffffffffffffffffffffffff16021790555061dead600660006101000a81548173ffffffffffffffffffffffffffffffffffffffff021916908373ffffffffffffffffffffffffffffffffffffffff160217905550348015620000a957600080fd5b506040518060400160405280600781526020017f486f6765322e30000000000000000000000000000000000000000000000000008152506040518060400160405280600581526020017f484f47453200000000000000000000000000000000000000000000000000000081525081600390805190602001906200012e92919062000150565b5080600490805190602001906200014792919062000150565b50505062000265565b8280546200015e9062000200565b90600052602060002090601f016020900481019282620001825760008555620001ce565b82601f106200019d57805160ff1916838001178555620001ce565b82800160010185558215620001ce579182015b82811115620001cd578251825591602001919060010190620001b0565b5b509050620001dd9190620001e1565b5090565b5b80821115620001fc576000816000905550600101620001e2565b5090565b600060028204905060018216806200021957607f821691505b6020821081141562000230576200022f62000236565b5b50919050565b7f4e487b7100000000000000000000000000000000000000000000000000000000600052602260045260246000fd5b61206380620002756000396000f3fe608060405234801561001057600080fd5b50600436106100f55760003560e01c806370a0823111610097578063b662ebdd11610066578063b662ebdd146102b0578063dd62ed3e146102ce578063de0e9a3e146102fe578063ea598cb01461031a576100f5565b806370a082311461020257806395d89b4114610232578063a457c2d714610250578063a9059cbb14610280576100f5565b806323b872dd116100d357806323b872dd14610166578063313ce5671461019657806335ce863f146101b457806339509351146101d2576100f5565b806306fdde03146100fa578063095ea7b31461011857806318160ddd14610148575b600080fd5b610102610336565b60405161010f9190611ba7565b60405180910390f35b610132600480360381019061012d91906115cf565b6103c8565b60405161013f9190611b8c565b60405180910390f35b6101506103eb565b60405161015d9190611d29565b60405180910390f35b610180600480360381019061017b9190611580565b6103f5565b60405161018d9190611b8c565b60405180910390f35b61019e610424565b6040516101ab9190611d44565b60405180910390f35b6101bc61042d565b6040516101c99190611d29565b60405180910390f35b6101ec60048036038101906101e791906115cf565b61056e565b6040516101f99190611b8c565b60405180910390f35b61021c6004803603810190610217919061151b565b610618565b6040516102299190611d29565b60405180910390f35b61023a610660565b6040516102479190611ba7565b60405180910390f35b61026a600480360381019061026591906115cf565b6106f2565b6040516102779190611b8c565b60405180910390f35b61029a600480360381019061029591906115cf565b6107dc565b6040516102a79190611b8c565b60405180910390f35b6102b86107ff565b6040516102c59190611d29565b60405180910390f35b6102e860048036038101906102e39190611544565b61095b565b6040516102f59190611d29565b60405180910390f35b61031860048036038101906103139190611634565b6109e2565b005b610334600480360381019061032f9190611634565b610a9f565b005b60606003805461034590611f18565b80601f016020809104026020016040519081016040528092919081815260200182805461037190611f18565b80156103be5780601f10610393576101008083540402835291602001916103be565b820191906000526020600020905b8154815290600101906020018083116103a157829003601f168201915b5050505050905090565b6000806103d3610b7d565b90506103e0818585610b85565b600191505092915050565b6000600254905090565b600080610400610b7d565b905061040d858285610d50565b610418858585610ddc565b60019150509392505050565b60006009905090565b60006105693073ffffffffffffffffffffffffffffffffffffffff166318160ddd6040518163ffffffff1660e01b815260040160206040518083038186803b15801561047857600080fd5b505afa15801561048c573d6000803e3d6000fd5b505050506040513d601f19601f820116820180604052508101906104b0919061165d565b600560009054906101000a900473ffffffffffffffffffffffffffffffffffffffff1673ffffffffffffffffffffffffffffffffffffffff166370a08231306040518263ffffffff1660e01b815260040161050b9190611b11565b60206040518083038186803b15801561052357600080fd5b505afa158015610537573d6000803e3d6000fd5b505050506040513d601f19601f8201168201806040525081019061055b919061165d565b61105d90919063ffffffff16565b905090565b600080610579610b7d565b905061060d818585600160008673ffffffffffffffffffffffffffffffffffffffff1673ffffffffffffffffffffffffffffffffffffffff16815260200190815260200160002060008973ffffffffffffffffffffffffffffffffffffffff1673ffffffffffffffffffffffffffffffffffffffff168152602001908152602001600020546106089190611d7b565b610b85565b600191505092915050565b60008060008373ffffffffffffffffffffffffffffffffffffffff1673ffffffffffffffffffffffffffffffffffffffff168152602001908152602001600020549050919050565b60606004805461066f90611f18565b80601f016020809104026020016040519081016040528092919081815260200182805461069b90611f18565b80156106e85780601f106106bd576101008083540402835291602001916106e8565b820191906000526020600020905b8154815290600101906020018083116106cb57829003601f168201915b5050505050905090565b6000806106fd610b7d565b90506000600160008373ffffffffffffffffffffffffffffffffffffffff1673ffffffffffffffffffffffffffffffffffffffff16815260200190815260200160002060008673ffffffffffffffffffffffffffffffffffffffff1673ffffffffffffffffffffffffffffffffffffffff168152602001908152602001600020549050838110156107c3576040517f08c379a00000000000000000000000000000000000000000000000000000000081526004016107ba90611ce9565b60405180910390fd5b6107d08286868403610b85565b60019250505092915050565b6000806107e7610b7d565b90506107f4818585610ddc565b600191505092915050565b6000803073ffffffffffffffffffffffffffffffffffffffff166335ce863f6040518163ffffffff1660e01b815260040160206040518083038186803b15801561084857600080fd5b505afa15801561085c573d6000803e3d6000fd5b505050506040513d601f19601f82011682018060405250810190610880919061165d565b9050600560009054906101000a900473ffffffffffffffffffffffffffffffffffffffff1673ffffffffffffffffffffffffffffffffffffffff1663a9059cbb600660009054906101000a900473ffffffffffffffffffffffffffffffffffffffff16836040518363ffffffff1660e01b8152600401610901929190611b63565b602060405180830381600087803b15801561091b57600080fd5b505af115801561092f573d6000803e3d6000fd5b505050506040513d601f19601f82011682018060405250810190610953919061160b565b508091505090565b6000600160008473ffffffffffffffffffffffffffffffffffffffff1673ffffffffffffffffffffffffffffffffffffffff16815260200190815260200160002060008373ffffffffffffffffffffffffffffffffffffffff1673ffffffffffffffffffffffffffffffffffffffff16815260200190815260200160002054905092915050565b600560009054906101000a900473ffffffffffffffffffffffffffffffffffffffff1673ffffffffffffffffffffffffffffffffffffffff1663a9059cbb33836040518363ffffffff1660e01b8152600401610a3f929190611b63565b602060405180830381600087803b158015610a5957600080fd5b505af1158015610a6d573d6000803e3d6000fd5b505050506040513d601f19601f82011682018060405250810190610a91919061160b565b50610a9c33826110a7565b50565b600560009054906101000a900473ffffffffffffffffffffffffffffffffffffffff1673ffffffffffffffffffffffffffffffffffffffff166323b872dd3330846040518463ffffffff1660e01b8152600401610afe93929190611b2c565b602060405180830381600087803b158015610b1857600080fd5b505af1158015610b2c573d6000803e3d6000fd5b505050506040513d601f19601f82011682018060405250810190610b50919061160b565b50610b7a336064610b6b60628561127e90919063ffffffff16565b610b759190611dd1565b6112f9565b50565b600033905090565b600073ffffffffffffffffffffffffffffffffffffffff168373ffffffffffffffffffffffffffffffffffffffff161415610bf5576040517f08c379a0000000000000000000000000000000000000000000000000000000008152600401610bec90611cc9565b60405180910390fd5b600073ffffffffffffffffffffffffffffffffffffffff168273ffffffffffffffffffffffffffffffffffffffff161415610c65576040517f08c379a0000000000000000000000000000000000000000000000000000000008152600401610c5c90611c09565b60405180910390fd5b80600160008573ffffffffffffffffffffffffffffffffffffffff1673ffffffffffffffffffffffffffffffffffffffff16815260200190815260200160002060008473ffffffffffffffffffffffffffffffffffffffff1673ffffffffffffffffffffffffffffffffffffffff168152602001908152602001600020819055508173ffffffffffffffffffffffffffffffffffffffff168373ffffffffffffffffffffffffffffffffffffffff167f8c5be1e5ebec7d5bd14f71427d1e84f3dd0314c0f7b2291e5b200ac8c7c3b92583604051610d439190611d29565b60405180910390a3505050565b6000610d5c848461095b565b90507fffffffffffffffffffffffffffffffffffffffffffffffffffffffffffffffff8114610dd65781811015610dc8576040517f08c379a0000000000000000000000000000000000000000000000000000000008152600401610dbf90611c29565b60405180910390fd5b610dd58484848403610b85565b5b50505050565b600073ffffffffffffffffffffffffffffffffffffffff168373ffffffffffffffffffffffffffffffffffffffff161415610e4c576040517f08c379a0000000000000000000000000000000000000000000000000000000008152600401610e4390611ca9565b60405180910390fd5b600073ffffffffffffffffffffffffffffffffffffffff168273ffffffffffffffffffffffffffffffffffffffff161415610ebc576040517f08c379a0000000000000000000000000000000000000000000000000000000008152600401610eb390611bc9565b60405180910390fd5b610ec7838383611459565b60008060008573ffffffffffffffffffffffffffffffffffffffff1673ffffffffffffffffffffffffffffffffffffffff16815260200190815260200160002054905081811015610f4d576040517f08c379a0000000000000000000000000000000000000000000000000000000008152600401610f4490611c49565b60405180910390fd5b8181036000808673ffffffffffffffffffffffffffffffffffffffff1673ffffffffffffffffffffffffffffffffffffffff16815260200190815260200160002081905550816000808573ffffffffffffffffffffffffffffffffffffffff1673ffffffffffffffffffffffffffffffffffffffff1681526020019081526020016000206000828254610fe09190611d7b565b925050819055508273ffffffffffffffffffffffffffffffffffffffff168473ffffffffffffffffffffffffffffffffffffffff167fddf252ad1be2c89b69c2b068fc378daa952ba7f163c4a11628f55a4df523b3ef846040516110449190611d29565b60405180910390a361105784848461145e565b50505050565b600061109f83836040518060400160405280601e81526020017f536166654d6174683a207375627472616374696f6e206f766572666c6f770000815250611463565b905092915050565b600073ffffffffffffffffffffffffffffffffffffffff168273ffffffffffffffffffffffffffffffffffffffff161415611117576040517f08c379a000000000000000000000000000000000000000000000000000000000815260040161110e90611c89565b60405180910390fd5b61112382600083611459565b60008060008473ffffffffffffffffffffffffffffffffffffffff1673ffffffffffffffffffffffffffffffffffffffff168152602001908152602001600020549050818110156111a9576040517f08c379a00000000000000000000000000000000000000000000000000000000081526004016111a090611be9565b60405180910390fd5b8181036000808573ffffffffffffffffffffffffffffffffffffffff1673ffffffffffffffffffffffffffffffffffffffff1681526020019081526020016000208190555081600260008282546112009190611e5c565b92505081905550600073ffffffffffffffffffffffffffffffffffffffff168373ffffffffffffffffffffffffffffffffffffffff167fddf252ad1be2c89b69c2b068fc378daa952ba7f163c4a11628f55a4df523b3ef846040516112659190611d29565b60405180910390a36112798360008461145e565b505050565b60008083141561129157600090506112f3565b6000828461129f9190611e02565b90508284826112ae9190611dd1565b146112ee576040517f08c379a00000000000000000000000000000000000000000000000000000000081526004016112e590611c69565b60405180910390fd5b809150505b92915050565b600073ffffffffffffffffffffffffffffffffffffffff168273ffffffffffffffffffffffffffffffffffffffff161415611369576040517f08c379a000000000000000000000000000000000000000000000000000000000815260040161136090611d09565b60405180910390fd5b61137560008383611459565b80600260008282546113879190611d7b565b92505081905550806000808473ffffffffffffffffffffffffffffffffffffffff1673ffffffffffffffffffffffffffffffffffffffff16815260200190815260200160002060008282546113dc9190611d7b565b925050819055508173ffffffffffffffffffffffffffffffffffffffff16600073ffffffffffffffffffffffffffffffffffffffff167fddf252ad1be2c89b69c2b068fc378daa952ba7f163c4a11628f55a4df523b3ef836040516114419190611d29565b60405180910390a36114556000838361145e565b5050565b505050565b505050565b60008383111582906114ab576040517f08c379a00000000000000000000000000000000000000000000000000000000081526004016114a29190611ba7565b60405180910390fd5b50600083856114ba9190611e5c565b9050809150509392505050565b6000813590506114d681611fe8565b92915050565b6000815190506114eb81611fff565b92915050565b60008135905061150081612016565b92915050565b60008151905061151581612016565b92915050565b60006020828403121561152d57600080fd5b600061153b848285016114c7565b91505092915050565b6000806040838503121561155757600080fd5b6000611565858286016114c7565b9250506020611576858286016114c7565b9150509250929050565b60008060006060848603121561159557600080fd5b60006115a3868287016114c7565b93505060206115b4868287016114c7565b92505060406115c5868287016114f1565b9150509250925092565b600080604083850312156115e257600080fd5b60006115f0858286016114c7565b9250506020611601858286016114f1565b9150509250929050565b60006020828403121561161d57600080fd5b600061162b848285016114dc565b91505092915050565b60006020828403121561164657600080fd5b6000611654848285016114f1565b91505092915050565b60006020828403121561166f57600080fd5b600061167d84828501611506565b91505092915050565b61168f81611e90565b82525050565b61169e81611ea2565b82525050565b60006116af82611d5f565b6116b98185611d6a565b93506116c9818560208601611ee5565b6116d281611fd7565b840191505092915050565b60006116ea602383611d6a565b91507f45524332303a207472616e7366657220746f20746865207a65726f206164647260008301527f65737300000000000000000000000000000000000000000000000000000000006020830152604082019050919050565b6000611750602283611d6a565b91507f45524332303a206275726e20616d6f756e7420657863656564732062616c616e60008301527f63650000000000000000000000000000000000000000000000000000000000006020830152604082019050919050565b60006117b6602283611d6a565b91507f45524332303a20617070726f766520746f20746865207a65726f20616464726560008301527f73730000000000000000000000000000000000000000000000000000000000006020830152604082019050919050565b600061181c601d83611d6a565b91507f45524332303a20696e73756666696369656e7420616c6c6f77616e63650000006000830152602082019050919050565b600061185c602683611d6a565b91507f45524332303a207472616e7366657220616d6f756e742065786365656473206260008301527f616c616e636500000000000000000000000000000000000000000000000000006020830152604082019050919050565b60006118c2602183611d6a565b91507f536166654d6174683a206d756c7469706c69636174696f6e206f766572666c6f60008301527f77000000000000000000000000000000000000000000000000000000000000006020830152604082019050919050565b6000611928602183611d6a565b91507f45524332303a206275726e2066726f6d20746865207a65726f2061646472657360008301527f73000000000000000000000000000000000000000000000000000000000000006020830152604082019050919050565b600061198e602583611d6a565b91507f45524332303a207472616e736665722066726f6d20746865207a65726f20616460008301527f64726573730000000000000000000000000000000000000000000000000000006020830152604082019050919050565b60006119f4602483611d6a565b91507f45524332303a20617070726f76652066726f6d20746865207a65726f2061646460008301527f72657373000000000000000000000000000000000000000000000000000000006020830152604082019050919050565b6000611a5a602583611d6a565b91507f45524332303a2064656372656173656420616c6c6f77616e63652062656c6f7760008301527f207a65726f0000000000000000000000000000000000000000000000000000006020830152604082019050919050565b6000611ac0601f83611d6a565b91507f45524332303a206d696e7420746f20746865207a65726f2061646472657373006000830152602082019050919050565b611afc81611ece565b82525050565b611b0b81611ed8565b82525050565b6000602082019050611b266000830184611686565b92915050565b6000606082019050611b416000830186611686565b611b4e6020830185611686565b611b5b6040830184611af3565b949350505050565b6000604082019050611b786000830185611686565b611b856020830184611af3565b9392505050565b6000602082019050611ba16000830184611695565b92915050565b60006020820190508181036000830152611bc181846116a4565b905092915050565b60006020820190508181036000830152611be2816116dd565b9050919050565b60006020820190508181036000830152611c0281611743565b9050919050565b60006020820190508181036000830152611c22816117a9565b9050919050565b60006020820190508181036000830152611c428161180f565b9050919050565b60006020820190508181036000830152611c628161184f565b9050919050565b60006020820190508181036000830152611c82816118b5565b9050919050565b60006020820190508181036000830152611ca28161191b565b9050919050565b60006020820190508181036000830152611cc281611981565b9050919050565b60006020820190508181036000830152611ce2816119e7565b9050919050565b60006020820190508181036000830152611d0281611a4d565b9050919050565b60006020820190508181036000830152611d2281611ab3565b9050919050565b6000602082019050611d3e6000830184611af3565b92915050565b6000602082019050611d596000830184611b02565b92915050565b600081519050919050565b600082825260208201905092915050565b6000611d8682611ece565b9150611d9183611ece565b9250827fffffffffffffffffffffffffffffffffffffffffffffffffffffffffffffffff03821115611dc657611dc5611f4a565b5b828201905092915050565b6000611ddc82611ece565b9150611de783611ece565b925082611df757611df6611f79565b5b828204905092915050565b6000611e0d82611ece565b9150611e1883611ece565b9250817fffffffffffffffffffffffffffffffffffffffffffffffffffffffffffffffff0483118215151615611e5157611e50611f4a565b5b828202905092915050565b6000611e6782611ece565b9150611e7283611ece565b925082821015611e8557611e84611f4a565b5b828203905092915050565b6000611e9b82611eae565b9050919050565b60008115159050919050565b600073ffffffffffffffffffffffffffffffffffffffff82169050919050565b6000819050919050565b600060ff82169050919050565b60005b83811015611f03578082015181840152602081019050611ee8565b83811115611f12576000848401525b50505050565b60006002820490506001821680611f3057607f821691505b60208210811415611f4457611f43611fa8565b5b50919050565b7f4e487b7100000000000000000000000000000000000000000000000000000000600052601160045260246000fd5b7f4e487b7100000000000000000000000000000000000000000000000000000000600052601260045260246000fd5b7f4e487b7100000000000000000000000000000000000000000000000000000000600052602260045260246000fd5b6000601f19601f8301169050919050565b611ff181611e90565b8114611ffc57600080fd5b50565b61200881611ea2565b811461201357600080fd5b50565b61201f81611ece565b811461202a57600080fd5b5056fea264697066735822122054c21847e3bef2a54777e5578081e366f99223afc030e486b80217220504189864736f6c63430008000033",
  "linkReferences": {},
  "deployedLinkReferences": {}
}