{
  "_format": "hh-sol-artifact-1",
  "contractName": "Hoge2",
  "sourceName": "contracts/Hoge2.sol",
  "abi": [
    {
      "inputs": [],
      "stateMutability": "nonpayable",
      "type": "constructor"
    },
    {
      "anonymous": false,
      "inputs": [
        {
          "indexed": true,
          "internalType": "address",
          "name": "owner",
          "type": "address"
        },
        {
          "indexed": true,
          "internalType": "address",
          "name": "spender",
          "type": "address"
        },
        {
          "indexed": false,
          "internalType": "uint256",
          "name": "value",
          "type": "uint256"
        }
      ],
      "name": "Approval",
      "type": "event"
    },
    {
      "anonymous": false,
      "inputs": [
        {
          "indexed": true,
          "internalType": "address",
          "name": "from",
          "type": "address"
        },
        {
          "indexed": true,
          "internalType": "address",
          "name": "to",
          "type": "address"
        },
        {
          "indexed": false,
          "internalType": "uint256",
          "name": "value",
          "type": "uint256"
        }
      ],
      "name": "Transfer",
      "type": "event"
    },
    {
      "inputs": [
        {
          "internalType": "address",
          "name": "owner",
          "type": "address"
        },
        {
          "internalType": "address",
          "name": "spender",
          "type": "address"
        }
      ],
      "name": "allowance",
      "outputs": [
        {
          "internalType": "uint256",
          "name": "",
          "type": "uint256"
        }
      ],
      "stateMutability": "view",
      "type": "function"
    },
    {
      "inputs": [
        {
          "internalType": "address",
          "name": "spender",
          "type": "address"
        },
        {
          "internalType": "uint256",
          "name": "amount",
          "type": "uint256"
        }
      ],
      "name": "approve",
      "outputs": [
        {
          "internalType": "bool",
          "name": "",
          "type": "bool"
        }
      ],
      "stateMutability": "nonpayable",
      "type": "function"
    },
    {
      "inputs": [
        {
          "internalType": "address",
          "name": "account",
          "type": "address"
        }
      ],
      "name": "balanceOf",
      "outputs": [
        {
          "internalType": "uint256",
          "name": "",
          "type": "uint256"
        }
      ],
      "stateMutability": "view",
      "type": "function"
    },
    {
      "inputs": [],
      "name": "burnHoge",
      "outputs": [
        {
          "internalType": "uint256",
          "name": "",
          "type": "uint256"
        }
      ],
      "stateMutability": "nonpayable",
      "type": "function"
    },
    {
      "inputs": [],
      "name": "burnableHoge",
      "outputs": [
        {
          "internalType": "uint256",
          "name": "",
          "type": "uint256"
        }
      ],
      "stateMutability": "view",
      "type": "function"
    },
    {
      "inputs": [],
      "name": "decimals",
      "outputs": [
        {
          "internalType": "uint8",
          "name": "",
          "type": "uint8"
        }
      ],
      "stateMutability": "view",
      "type": "function"
    },
    {
      "inputs": [
        {
          "internalType": "address",
          "name": "spender",
          "type": "address"
        },
        {
          "internalType": "uint256",
          "name": "subtractedValue",
          "type": "uint256"
        }
      ],
      "name": "decreaseAllowance",
      "outputs": [
        {
          "internalType": "bool",
          "name": "",
          "type": "bool"
        }
      ],
      "stateMutability": "nonpayable",
      "type": "function"
    },
    {
      "inputs": [
        {
          "internalType": "address",
          "name": "spender",
          "type": "address"
        },
        {
          "internalType": "uint256",
          "name": "addedValue",
          "type": "uint256"
        }
      ],
      "name": "increaseAllowance",
      "outputs": [
        {
          "internalType": "bool",
          "name": "",
          "type": "bool"
        }
      ],
      "stateMutability": "nonpayable",
      "type": "function"
    },
    {
      "inputs": [],
      "name": "name",
      "outputs": [
        {
          "internalType": "string",
          "name": "",
          "type": "string"
        }
      ],
      "stateMutability": "view",
      "type": "function"
    },
    {
      "inputs": [],
      "name": "symbol",
      "outputs": [
        {
          "internalType": "string",
          "name": "",
          "type": "string"
        }
      ],
      "stateMutability": "view",
      "type": "function"
    },
    {
      "inputs": [],
      "name": "totalSupply",
      "outputs": [
        {
          "internalType": "uint256",
          "name": "",
          "type": "uint256"
        }
      ],
      "stateMutability": "view",
      "type": "function"
    },
    {
      "inputs": [
        {
          "internalType": "address",
          "name": "to",
          "type": "address"
        },
        {
          "internalType": "uint256",
          "name": "amount",
          "type": "uint256"
        }
      ],
      "name": "transfer",
      "outputs": [
        {
          "internalType": "bool",
          "name": "",
          "type": "bool"
        }
      ],
      "stateMutability": "nonpayable",
      "type": "function"
    },
    {
      "inputs": [
        {
          "internalType": "address",
          "name": "from",
          "type": "address"
        },
        {
          "internalType": "address",
          "name": "to",
          "type": "address"
        },
        {
          "internalType": "uint256",
          "name": "amount",
          "type": "uint256"
        }
      ],
      "name": "transferFrom",
      "outputs": [
        {
          "internalType": "bool",
          "name": "",
          "type": "bool"
        }
      ],
      "stateMutability": "nonpayable",
      "type": "function"
    },
    {
      "inputs": [
        {
          "internalType": "uint256",
          "name": "hoge2Amount",
          "type": "uint256"
        }
      ],
      "name": "unwrap",
      "outputs": [],
      "stateMutability": "nonpayable",
      "type": "function"
    },
    {
      "inputs": [
        {
          "internalType": "uint256",
          "name": "hogeAmount",
          "type": "uint256"
        }
      ],
      "name": "wrap",
      "outputs": [],
      "stateMutability": "nonpayable",
      "type": "function"
    }
  ],
  "bytecode": "0x608060405273fad45e47083e4607302aa43c65fb3106f1cd7607600560006101000a81548173ffffffffffffffffffffffffffffffffffffffff021916908373ffffffffffffffffffffffffffffffffffffffff16021790555061dead600660006101000a81548173ffffffffffffffffffffffffffffffffffffffff021916908373ffffffffffffffffffffffffffffffffffffffff160217905550348015620000a957600080fd5b506040518060400160405280600781526020017f486f6765322e30000000000000000000000000000000000000000000000000008152506040518060400160405280600581526020017f484f47453200000000000000000000000000000000000000000000000000000081525081600390805190602001906200012e92919062000150565b5080600490805190602001906200014792919062000150565b50505062000265565b8280546200015e906200022f565b90600052602060002090601f016020900481019282620001825760008555620001ce565b82601f106200019d57805160ff1916838001178555620001ce565b82800160010185558215620001ce579182015b82811115620001cd578251825591602001919060010190620001b0565b5b509050620001dd9190620001e1565b5090565b5b80821115620001fc576000816000905550600101620001e2565b5090565b7f4e487b7100000000000000000000000000000000000000000000000000000000600052602260045260246000fd5b600060028204905060018216806200024857607f821691505b602082108114156200025f576200025e62000200565b5b50919050565b6120ae80620002756000396000f3fe608060405234801561001057600080fd5b50600436106100f55760003560e01c806370a0823111610097578063b662ebdd11610066578063b662ebdd146102b0578063dd62ed3e146102ce578063de0e9a3e146102fe578063ea598cb01461031a576100f5565b806370a082311461020257806395d89b4114610232578063a457c2d714610250578063a9059cbb14610280576100f5565b806323b872dd116100d357806323b872dd14610166578063313ce5671461019657806335ce863f146101b457806339509351146101d2576100f5565b806306fdde03146100fa578063095ea7b31461011857806318160ddd14610148575b600080fd5b610102610336565b60405161010f9190611506565b60405180910390f35b610132600480360381019061012d91906115c1565b6103c8565b60405161013f919061161c565b60405180910390f35b6101506103eb565b60405161015d9190611646565b60405180910390f35b610180600480360381019061017b9190611661565b6103f5565b60405161018d919061161c565b60405180910390f35b61019e610424565b6040516101ab91906116d0565b60405180910390f35b6101bc61042d565b6040516101c99190611646565b60405180910390f35b6101ec60048036038101906101e791906115c1565b610550565b6040516101f9919061161c565b60405180910390f35b61021c600480360381019061021791906116eb565b6105fa565b6040516102299190611646565b60405180910390f35b61023a610642565b6040516102479190611506565b60405180910390f35b61026a600480360381019061026591906115c1565b6106d4565b604051610277919061161c565b60405180910390f35b61029a600480360381019061029591906115c1565b6107be565b6040516102a7919061161c565b60405180910390f35b6102b86107e1565b6040516102c59190611646565b60405180910390f35b6102e860048036038101906102e39190611718565b61091f565b6040516102f59190611646565b60405180910390f35b61031860048036038101906103139190611758565b6109a6565b005b610334600480360381019061032f9190611758565b610a54565b005b606060038054610345906117b4565b80601f0160208091040260200160405190810160405280929190818152602001828054610371906117b4565b80156103be5780601f10610393576101008083540402835291602001916103be565b820191906000526020600020905b8154815290600101906020018083116103a157829003601f168201915b5050505050905090565b6000806103d3610b23565b90506103e0818585610b2b565b600191505092915050565b6000600254905090565b600080610400610b23565b905061040d858285610cf6565b610418858585610d82565b60019150509392505050565b60006009905090565b600061054b3073ffffffffffffffffffffffffffffffffffffffff166318160ddd6040518163ffffffff1660e01b8152600401602060405180830381865afa15801561047d573d6000803e3d6000fd5b505050506040513d601f19601f820116820180604052508101906104a191906117fb565b600560009054906101000a900473ffffffffffffffffffffffffffffffffffffffff1673ffffffffffffffffffffffffffffffffffffffff166370a08231306040518263ffffffff1660e01b81526004016104fc9190611837565b602060405180830381865afa158015610519573d6000803e3d6000fd5b505050506040513d601f19601f8201168201806040525081019061053d91906117fb565b61100390919063ffffffff16565b905090565b60008061055b610b23565b90506105ef818585600160008673ffffffffffffffffffffffffffffffffffffffff1673ffffffffffffffffffffffffffffffffffffffff16815260200190815260200160002060008973ffffffffffffffffffffffffffffffffffffffff1673ffffffffffffffffffffffffffffffffffffffff168152602001908152602001600020546105ea9190611881565b610b2b565b600191505092915050565b60008060008373ffffffffffffffffffffffffffffffffffffffff1673ffffffffffffffffffffffffffffffffffffffff168152602001908152602001600020549050919050565b606060048054610651906117b4565b80601f016020809104026020016040519081016040528092919081815260200182805461067d906117b4565b80156106ca5780601f1061069f576101008083540402835291602001916106ca565b820191906000526020600020905b8154815290600101906020018083116106ad57829003601f168201915b5050505050905090565b6000806106df610b23565b90506000600160008373ffffffffffffffffffffffffffffffffffffffff1673ffffffffffffffffffffffffffffffffffffffff16815260200190815260200160002060008673ffffffffffffffffffffffffffffffffffffffff1673ffffffffffffffffffffffffffffffffffffffff168152602001908152602001600020549050838110156107a5576040517f08c379a000000000000000000000000000000000000000000000000000000000815260040161079c90611949565b60405180910390fd5b6107b28286868403610b2b565b60019250505092915050565b6000806107c9610b23565b90506107d6818585610d82565b600191505092915050565b6000803073ffffffffffffffffffffffffffffffffffffffff166335ce863f6040518163ffffffff1660e01b8152600401602060405180830381865afa15801561082f573d6000803e3d6000fd5b505050506040513d601f19601f8201168201806040525081019061085391906117fb565b9050600560009054906101000a900473ffffffffffffffffffffffffffffffffffffffff1673ffffffffffffffffffffffffffffffffffffffff1663a9059cbb600660009054906101000a900473ffffffffffffffffffffffffffffffffffffffff16836040518363ffffffff1660e01b81526004016108d4929190611969565b6020604051808303816000875af11580156108f3573d6000803e3d6000fd5b505050506040513d601f19601f8201168201806040525081019061091791906119be565b508091505090565b6000600160008473ffffffffffffffffffffffffffffffffffffffff1673ffffffffffffffffffffffffffffffffffffffff16815260200190815260200160002060008373ffffffffffffffffffffffffffffffffffffffff1673ffffffffffffffffffffffffffffffffffffffff16815260200190815260200160002054905092915050565b600560009054906101000a900473ffffffffffffffffffffffffffffffffffffffff1673ffffffffffffffffffffffffffffffffffffffff1663a9059cbb33836040518363ffffffff1660e01b8152600401610a03929190611969565b6020604051808303816000875af1158015610a22573d6000803e3d6000fd5b505050506040513d601f19601f82011682018060405250810190610a4691906119be565b50610a51338261104d565b50565b600560009054906101000a900473ffffffffffffffffffffffffffffffffffffffff1673ffffffffffffffffffffffffffffffffffffffff166323b872dd3330846040518463ffffffff1660e01b8152600401610ab3939291906119eb565b6020604051808303816000875af1158015610ad2573d6000803e3d6000fd5b505050506040513d601f19601f82011682018060405250810190610af691906119be565b50610b20336064610b1160628561122490919063ffffffff16565b610b1b9190611a51565b61129f565b50565b600033905090565b600073ffffffffffffffffffffffffffffffffffffffff168373ffffffffffffffffffffffffffffffffffffffff161415610b9b576040517f08c379a0000000000000000000000000000000000000000000000000000000008152600401610b9290611af4565b60405180910390fd5b600073ffffffffffffffffffffffffffffffffffffffff168273ffffffffffffffffffffffffffffffffffffffff161415610c0b576040517f08c379a0000000000000000000000000000000000000000000000000000000008152600401610c0290611b86565b60405180910390fd5b80600160008573ffffffffffffffffffffffffffffffffffffffff1673ffffffffffffffffffffffffffffffffffffffff16815260200190815260200160002060008473ffffffffffffffffffffffffffffffffffffffff1673ffffffffffffffffffffffffffffffffffffffff168152602001908152602001600020819055508173ffffffffffffffffffffffffffffffffffffffff168373ffffffffffffffffffffffffffffffffffffffff167f8c5be1e5ebec7d5bd14f71427d1e84f3dd0314c0f7b2291e5b200ac8c7c3b92583604051610ce99190611646565b60405180910390a3505050565b6000610d02848461091f565b90507fffffffffffffffffffffffffffffffffffffffffffffffffffffffffffffffff8114610d7c5781811015610d6e576040517f08c379a0000000000000000000000000000000000000000000000000000000008152600401610d6590611bf2565b60405180910390fd5b610d7b8484848403610b2b565b5b50505050565b600073ffffffffffffffffffffffffffffffffffffffff168373ffffffffffffffffffffffffffffffffffffffff161415610df2576040517f08c379a0000000000000000000000000000000000000000000000000000000008152600401610de990611c84565b60405180910390fd5b600073ffffffffffffffffffffffffffffffffffffffff168273ffffffffffffffffffffffffffffffffffffffff161415610e62576040517f08c379a0000000000000000000000000000000000000000000000000000000008152600401610e5990611d16565b60405180910390fd5b610e6d8383836113ff565b60008060008573ffffffffffffffffffffffffffffffffffffffff1673ffffffffffffffffffffffffffffffffffffffff16815260200190815260200160002054905081811015610ef3576040517f08c379a0000000000000000000000000000000000000000000000000000000008152600401610eea90611da8565b60405180910390fd5b8181036000808673ffffffffffffffffffffffffffffffffffffffff1673ffffffffffffffffffffffffffffffffffffffff16815260200190815260200160002081905550816000808573ffffffffffffffffffffffffffffffffffffffff1673ffffffffffffffffffffffffffffffffffffffff1681526020019081526020016000206000828254610f869190611881565b925050819055508273ffffffffffffffffffffffffffffffffffffffff168473ffffffffffffffffffffffffffffffffffffffff167fddf252ad1be2c89b69c2b068fc378daa952ba7f163c4a11628f55a4df523b3ef84604051610fea9190611646565b60405180910390a3610ffd848484611404565b50505050565b600061104583836040518060400160405280601e81526020017f536166654d6174683a207375627472616374696f6e206f766572666c6f770000815250611409565b905092915050565b600073ffffffffffffffffffffffffffffffffffffffff168273ffffffffffffffffffffffffffffffffffffffff1614156110bd576040517f08c379a00000000000000000000000000000000000000000000000000000000081526004016110b490611e3a565b60405180910390fd5b6110c9826000836113ff565b60008060008473ffffffffffffffffffffffffffffffffffffffff1673ffffffffffffffffffffffffffffffffffffffff1681526020019081526020016000205490508181101561114f576040517f08c379a000000000000000000000000000000000000000000000000000000000815260040161114690611ecc565b60405180910390fd5b8181036000808573ffffffffffffffffffffffffffffffffffffffff1673ffffffffffffffffffffffffffffffffffffffff1681526020019081526020016000208190555081600260008282546111a69190611eec565b92505081905550600073ffffffffffffffffffffffffffffffffffffffff168373ffffffffffffffffffffffffffffffffffffffff167fddf252ad1be2c89b69c2b068fc378daa952ba7f163c4a11628f55a4df523b3ef8460405161120b9190611646565b60405180910390a361121f83600084611404565b505050565b6000808314156112375760009050611299565b600082846112459190611f20565b90508284826112549190611a51565b14611294576040517f08c379a000000000000000000000000000000000000000000000000000000000815260040161128b90611fec565b60405180910390fd5b809150505b92915050565b600073ffffffffffffffffffffffffffffffffffffffff168273ffffffffffffffffffffffffffffffffffffffff16141561130f576040517f08c379a000000000000000000000000000000000000000000000000000000000815260040161130690612058565b60405180910390fd5b61131b600083836113ff565b806002600082825461132d9190611881565b92505081905550806000808473ffffffffffffffffffffffffffffffffffffffff1673ffffffffffffffffffffffffffffffffffffffff16815260200190815260200160002060008282546113829190611881565b925050819055508173ffffffffffffffffffffffffffffffffffffffff16600073ffffffffffffffffffffffffffffffffffffffff167fddf252ad1be2c89b69c2b068fc378daa952ba7f163c4a11628f55a4df523b3ef836040516113e79190611646565b60405180910390a36113fb60008383611404565b5050565b505050565b505050565b6000838311158290611451576040517f08c379a00000000000000000000000000000000000000000000000000000000081526004016114489190611506565b60405180910390fd5b50600083856114609190611eec565b9050809150509392505050565b600081519050919050565b600082825260208201905092915050565b60005b838110156114a757808201518184015260208101905061148c565b838111156114b6576000848401525b50505050565b6000601f19601f8301169050919050565b60006114d88261146d565b6114e28185611478565b93506114f2818560208601611489565b6114fb816114bc565b840191505092915050565b6000602082019050818103600083015261152081846114cd565b905092915050565b600080fd5b600073ffffffffffffffffffffffffffffffffffffffff82169050919050565b60006115588261152d565b9050919050565b6115688161154d565b811461157357600080fd5b50565b6000813590506115858161155f565b92915050565b6000819050919050565b61159e8161158b565b81146115a957600080fd5b50565b6000813590506115bb81611595565b92915050565b600080604083850312156115d8576115d7611528565b5b60006115e685828601611576565b92505060206115f7858286016115ac565b9150509250929050565b60008115159050919050565b61161681611601565b82525050565b6000602082019050611631600083018461160d565b92915050565b6116408161158b565b82525050565b600060208201905061165b6000830184611637565b92915050565b60008060006060848603121561167a57611679611528565b5b600061168886828701611576565b935050602061169986828701611576565b92505060406116aa868287016115ac565b9150509250925092565b600060ff82169050919050565b6116ca816116b4565b82525050565b60006020820190506116e560008301846116c1565b92915050565b60006020828403121561170157611700611528565b5b600061170f84828501611576565b91505092915050565b6000806040838503121561172f5761172e611528565b5b600061173d85828601611576565b925050602061174e85828601611576565b9150509250929050565b60006020828403121561176e5761176d611528565b5b600061177c848285016115ac565b91505092915050565b7f4e487b7100000000000000000000000000000000000000000000000000000000600052602260045260246000fd5b600060028204905060018216806117cc57607f821691505b602082108114156117e0576117df611785565b5b50919050565b6000815190506117f581611595565b92915050565b60006020828403121561181157611810611528565b5b600061181f848285016117e6565b91505092915050565b6118318161154d565b82525050565b600060208201905061184c6000830184611828565b92915050565b7f4e487b7100000000000000000000000000000000000000000000000000000000600052601160045260246000fd5b600061188c8261158b565b91506118978361158b565b9250827fffffffffffffffffffffffffffffffffffffffffffffffffffffffffffffffff038211156118cc576118cb611852565b5b828201905092915050565b7f45524332303a2064656372656173656420616c6c6f77616e63652062656c6f7760008201527f207a65726f000000000000000000000000000000000000000000000000000000602082015250565b6000611933602583611478565b915061193e826118d7565b604082019050919050565b6000602082019050818103600083015261196281611926565b9050919050565b600060408201905061197e6000830185611828565b61198b6020830184611637565b9392505050565b61199b81611601565b81146119a657600080fd5b50565b6000815190506119b881611992565b92915050565b6000602082840312156119d4576119d3611528565b5b60006119e2848285016119a9565b91505092915050565b6000606082019050611a006000830186611828565b611a0d6020830185611828565b611a1a6040830184611637565b949350505050565b7f4e487b7100000000000000000000000000000000000000000000000000000000600052601260045260246000fd5b6000611a5c8261158b565b9150611a678361158b565b925082611a7757611a76611a22565b5b828204905092915050565b7f45524332303a20617070726f76652066726f6d20746865207a65726f2061646460008201527f7265737300000000000000000000000000000000000000000000000000000000602082015250565b6000611ade602483611478565b9150611ae982611a82565b604082019050919050565b60006020820190508181036000830152611b0d81611ad1565b9050919050565b7f45524332303a20617070726f766520746f20746865207a65726f20616464726560008201527f7373000000000000000000000000000000000000000000000000000000000000602082015250565b6000611b70602283611478565b9150611b7b82611b14565b604082019050919050565b60006020820190508181036000830152611b9f81611b63565b9050919050565b7f45524332303a20696e73756666696369656e7420616c6c6f77616e6365000000600082015250565b6000611bdc601d83611478565b9150611be782611ba6565b602082019050919050565b60006020820190508181036000830152611c0b81611bcf565b9050919050565b7f45524332303a207472616e736665722066726f6d20746865207a65726f20616460008201527f6472657373000000000000000000000000000000000000000000000000000000602082015250565b6000611c6e602583611478565b9150611c7982611c12565b604082019050919050565b60006020820190508181036000830152611c9d81611c61565b9050919050565b7f45524332303a207472616e7366657220746f20746865207a65726f206164647260008201527f6573730000000000000000000000000000000000000000000000000000000000602082015250565b6000611d00602383611478565b9150611d0b82611ca4565b604082019050919050565b60006020820190508181036000830152611d2f81611cf3565b9050919050565b7f45524332303a207472616e7366657220616d6f756e742065786365656473206260008201527f616c616e63650000000000000000000000000000000000000000000000000000602082015250565b6000611d92602683611478565b9150611d9d82611d36565b604082019050919050565b60006020820190508181036000830152611dc181611d85565b9050919050565b7f45524332303a206275726e2066726f6d20746865207a65726f2061646472657360008201527f7300000000000000000000000000000000000000000000000000000000000000602082015250565b6000611e24602183611478565b9150611e2f82611dc8565b604082019050919050565b60006020820190508181036000830152611e5381611e17565b9050919050565b7f45524332303a206275726e20616d6f756e7420657863656564732062616c616e60008201527f6365000000000000000000000000000000000000000000000000000000000000602082015250565b6000611eb6602283611478565b9150611ec182611e5a565b604082019050919050565b60006020820190508181036000830152611ee581611ea9565b9050919050565b6000611ef78261158b565b9150611f028361158b565b925082821015611f1557611f14611852565b5b828203905092915050565b6000611f2b8261158b565b9150611f368361158b565b9250817fffffffffffffffffffffffffffffffffffffffffffffffffffffffffffffffff0483118215151615611f6f57611f6e611852565b5b828202905092915050565b7f536166654d6174683a206d756c7469706c69636174696f6e206f766572666c6f60008201527f7700000000000000000000000000000000000000000000000000000000000000602082015250565b6000611fd6602183611478565b9150611fe182611f7a565b604082019050919050565b6000602082019050818103600083015261200581611fc9565b9050919050565b7f45524332303a206d696e7420746f20746865207a65726f206164647265737300600082015250565b6000612042601f83611478565b915061204d8261200c565b602082019050919050565b6000602082019050818103600083015261207181612035565b905091905056fea264697066735822122052c54cf1d2aa251fb10f0c0e1aa23b82998133fab509166e8ae2fb982c13583864736f6c634300080b0033",
  "linkReferences": {},
  "deployedLinkReferences": {}
}